:020000040800F2
:1000000050E5002049010008617F000831620008C6
:100010005F7F0008190A00085DB6000800000000B4
:1000200000000000000000000000000035A90008EA
:10003000B30E0008000000000B030008998A0008B6
:100040006301000863010008630100086301000800
:1000500063010008630100086301000863010008F0
:1000600063010008630100086301000863010008E0
:1000700063010008630100086301000863010008D0
:1000800063010008630100086301000863010008C0
:1000900063010008630100086301000863010008B0
:1000A00063010008630100086301000863010008A0
:1000B0006301000863010008630100086301000890
:1000C0006301000863010008630100086301000880
:1000D0006301000863010008630100086301000870
:1000E0006301000863010008630100086301000860
:1000F0006301000863010008630100086301000850
:10010000630100086301000863010008630100083F
:10011000630100086301000863010008630100082F
:10012000630100086301000863010008630100081F
:10013000DFF810D000F09AF800480047B1900108AD
:10014000AFF3008050E5002006488047064800478E
:10015000FEE7FEE7FEE7FEE7FEE7FEE7FEE7FEE777
:10016000FEE7FEE711AA00083101000872B67047E9
:1001700062B67047EFF3108072B6704780F3108854
:10018000704730BF704720BF7047B0FA80F07047AB
:1001900090FAA0F0B0FA80F0704790FAA0F07047A3
:1001A00010B5431A934209D28318881803E010F857
:1001B000011D03F8011D521EF9D210BD40EA0103D2
:1001C0009B0703D009E008C9121F08C0042AFAD20D
:1001D00003E011F8013B00F8013B521EF9D210BDBB
:1001E000D2B201E000F8012B491EFBD27047002279
:1001F000F6E710B513460A4604461946FFF7F0FF26
:10020000204610BD421C10F8011B0029FBD1801AAA
:10021000704730B504460020034600E05B1C934263
:1002200003D2E05CCD5C401BF8D030BD034611F832
:10023000012B00F8012B002AF9D11846704730B580
:100240000B46014600202022012409E021FA02F594
:100250009D4205D303FA02F5491B04FA02F528442E
:10026000151EA2F10102F1DC30BD0000064C074D65
:1002700006E0E06840F0010394E807009847103476
:10028000AC42F6D3FFF758FFB40D0308D40D0308B2
:1002900070B58C1810F8015B15F0070301D110F848
:1002A000013B2A1106D110F8012B03E010F8016B75
:1002B00001F8016B5B1EF9D12B0705D40023521EF8
:1002C0000DD401F8013BFAE710F8013BCB1A921C60
:1002D00003E013F8015B01F8015B521EF9D5A1425E
:1002E000D8D3002070BD000018484FF0FF01017006
:1002F000002080F309881648016881F308881548B2
:100300004FF08051016062B6FEE772B6EFF30980EC
:1003100028B1203880E8F00F0F490968086000B55F
:100320000E4880475DF804EB0D480E490A780270CC
:1003300009480D490A680260106890E8F00F203003
:1003400080F309884EF0040E62B6704722ED00E09B
:10035000A000002004ED00E098000020C188000803
:1003600054000020550000209C000020002800DCE4
:100370004042704708B50849084806F0C7FB0748DF
:100380000749083006F0C2FB6B46002205A1084869
:1003900007F078FF08BD00009D61000830000020D4
:1003A000B961000853454D5F53484F5400000000A9
:1003B000C837002070B58AB0002409AD0326059423
:1003C000CDE9076519221D4B0694CDE901320120C4
:1003D0000102CDE903100C2000902346184A19A110
:1003E0001C4808F0A9F80594CDE907654C221A4B82
:1003F0000694CDE9013202203102CDE90310042038
:10040000009014480023154A15A1B43008F094F860
:10041000CDE90646059470020895CDE903049921BB
:10042000134ACDE901210D2000900023114A12A1A9
:10043000164808F081F80AB070BD0000C80F00200F
:1004400041060008417070205461736B2055706440
:1004500061746500AC090020C813002091040008F5
:10046000417070205461736B2053484F540000005A
:10047000C81F002095060008417070205461736BFE
:10048000205573657261707000000000140B00202D
:1004900088B0204D07AE002206AB11461E480096DC
:1004A00007F012FF002422461CA101A817F0DCF976
:1004B0001948012201A91C3018F0B4F8E87004288A
:1004C00007D015481C3018F078F8641CE4B2FF2CF3
:1004D000E9D307A807F08CFE15A017F0B5F90E4870
:1004E0000A2201A91C3018F09DF8E8700A49164844
:1004F0001C3102F075FA08481C3018F05EF8E870FC
:1005000012A017F0A1F92878401C287007A807F05E
:100510008FFEC0E728000020C8370020303A2F7037
:1005200069637475726525642E626D700000000049
:1005300073746172742073686F742070696374756A
:1005400072650A0D000000006970010873686F741D
:100550002070696374757265207375636365737366
:100560000A0D00000EB500F0A9F800F0F5FA00F051
:10057000FBF802A807F088FF17A017F065F9FFF74E
:1005800019FF21A017F060F9FFF7F4FE2A4E4FF48F
:100590000077002502AC04F0CFF92748103006F0B0
:1005A000C3FA25480021103006F0B8FA58B1707827
:1005B00048B102AA3946214807F008FF1E48012128
:1005C000103006F0ABFA0022CDE900540F2311469B
:1005D000104608F0CFF9DEE73C3C2D4F532D494E35
:1005E000464F2D3E3E204372656174696E6720411F
:1005F00070706C69636174696F6E205461736B73A2
:100600002E2E2E0A0D0A00003C3C2D4F532D494E34
:10061000464F2D3E3E204372656174696E672041EE
:1006200070706C69636174696F6E204576656E7475
:10063000732E2E2E0A0D0A0028000020C837002035
:100640000EB541F2883402E0204617F011FB0AF0A3
:10065000C9FD0028F8D14FF480770D4E002502AC7B
:100660000FE03946304601F035FC0022CDE9005458
:1006700064231146104608F07DF93946304601F0F2
:1006800027FC00200AF02EFE0028EED0E9E700004B
:100690000008014004488078552801D00AF04CFE3B
:1006A0000AF0DEFFFCE700002800002000B585B05E
:1006B000684609F00FFC019805B000BD00B585B093
:1006C000002001900290039004900121402009F045
:1006D000D7FB00F09DF907F001FA06F0EBF906F000
:1006E000FFF900F079F90AF0D9FE0DF07FF9042046
:1006F0000CF0C0FA06F024F803F018F9012216A154
:10070000164817F069FF01224FF4FF11144809F051
:1007100059FF1348007855281CD11022114901A80F
:1007200009F050FFBDF808000090BDF81030BDF88A
:100730000C20BDF80410002004F0A6F8BDF80A0053
:100740000090BDF81230BDF80E20BDF80610012053
:1007500004F09AF805B000BD303A0000B45D002006
:100760002A00002002E01F0010B5FFF79FFF044998
:100770000968B0FBF1F0BDE8104008F09FB9000037
:10078000A4940108F0B5044680688B4989B051F8FB
:100790002050606800287DD0052804D006287AD033
:1007A000122879D1AEE0E86900284FD095E80E0014
:1007B0008DE80F0004F110010FC905F09FF8002625
:1007C00055F8260003F0ABFEA169E8690A1A216911
:1007D00001446069304402F0B3FDA169E8690A1A76
:1007E00021690144E069801B02F0AAFDE169E86922
:1007F0000A1A616901442069304402F077FEE16918
:10080000E8690A1A61690144A069801B02F06EFE62
:10081000761C022ED4DBA86803F081FEE069E9694A
:100820006669431A20694218521E3144801C02F046
:10083000EFFEE169E869A2690B1A61690144101AC7
:10084000401C921E02F0E4FEEE6913E05FF0000629
:1008500055F8260003F063FEE069831BA069821B44
:10086000606981192069304402F0E0FD761C022E97
:10087000EEDB0226D5E90301CDE900016169E069FB
:1008800008444310A069891C821B2069304402F08F
:100890001BFD02E089E012E08AE0D5E90501CDE91F
:1008A0000001E36960690121184401EB6001A0695E
:1008B0009B1E821B2069304402F006FD78E0206810
:1008C00001F038FF049020680CF04BFD40B1A068A7
:1008D00008B1002008E00498006F28B1012003E06F
:1008E0000498406F00B10220049901EB8000C56EAE
:1008F00004A801F089FF00231A462846216802F067
:1009000013FA55E0206801F015FF0490866EEEB3EF
:10091000B0F95C70A168D1B3032942D05FF0000147
:1009200000EB8101406D0C6C03F016FE204603F0D5
:10093000F6FD05A802F02EFFBDF81410A88B0144A7
:10094000ADF81410BDF81810081AADF81800BDF86D
:100950001600801CADF81600BDF81A00801EADF818
:100960001A0004985E30B0F90220B0F9001005A812
:1009700003F084FC04A801F047FF022003F058FEB6
:10098000304601F0D7FE3A4605A901E00BE006E04B
:10099000079002F0E7FA07A801F036FF08E001210E
:1009A000BEE70221BCE704A8F6E720680CF0C8F90E
:1009B00009B00020F0BD0000E0ED0208044A034940
:1009C000116004494A6A4862104670479801002045
:1009D000D4060020E006002038B50121042009F0EB
:1009E0006BFA4FF48074ADF8004010208DF80300CE
:1009F00003208DF80200054D6946284601F00EFAE5
:100A00002146284601F064FA38BD00000008014084
:100A10004FF4A06007F0A6BAFEE700002DE9FF47FB
:100A20000446006810B10CF09CFC68B1002231480B
:100A300050F8221060680A2841D007DCF0B306287D
:100A40000DD0072854D106E00122F0E712280AD081
:100A500019284DD137E020460EF002F848E0204634
:100A60000FF002FC44E0206801F064FE0290B0F94F
:100A7000548090F85650476C466B02A801F0C4FEB3
:100A8000206800F039F8814668460BF01DFBBDF880
:100A9000001009EB05000844ADF80000246A304658
:100AA00003F05AFD022003F0C3FD384603F037FD82
:100AB00042466946204602F055FA19E007E0204612
:100AC00010F09DF914E0886904B0BDE8F087206853
:100AD0000CF036F9206801F02DFE0390B0F90610F5
:100AE000B0F90220891A491CC16703A801F08CFEE5
:100AF0000020E9E7F0ED020838B5044602F04CFFAB
:100B0000204601F017FE0090C46F684601F07CFE9D
:100B100004F06CF9204638BD044A034911600449C9
:100B2000CA69C861104670472402002010070020DF
:100B30001407002000B589B024216846FFF757FB51
:100B4000192001900348006880684168684688471A
:100B500009B000BD10070020AFF30080024900205B
:100B6000086000F009B8000040000020014908605A
:100B7000704700004000002010B50948016841F0AE
:100B800080710160074800214160016841F0010166
:100B90000160FFF78BFDBDE81040FFF7E7BF0000E5
:100BA000FCED00E0001000E00148406870470000E4
:100BB000001000E070B586B00BF0AAFA30214FF4B7
:100BC0001472CDE9032105910321CDE900011648F6
:100BD00000230293036A74224FF481713E2005F0D2
:100BE000FCFB06460024114D11A2304655F8341086
:100BF00005F02AFB641CE4B2022CF5D30D4A012156
:100C0000304605F061FC4FF0FF31304605F0A6FCA0
:100C10000A220021304605F0B0FC06B03046BDE89F
:100C20007040082105F083BC146E0020D0940108A8
:100C30000000000080FFFF80F0B587B000240BF0BB
:100C400067FA2C4A0223CDE901322B4D0090042192
:100C500005F1080003910FC80BF074F868623A219F
:100C60003022CDE90421002640F25123CDE9026370
:100C70000321CDE90001E8692A68143000EB400344
:100C8000D21E3146032005F0A8FB06461B4D6FF02F
:100C90007F4705EBC40055F834104268304605F034
:100CA000D3FA3A462146304605F088FC641CE4B28B
:100CB0000C2CEED3124A0121304605F005FC1149F7
:100CC000304605F01DFC4FF0FF31304605F046FC84
:100CD0000A220021304605F050FC0C22012130464A
:100CE00005F04BFC07B03046BDE8F040082105F0A8
:100CF0001EBC0000BD790108146E0020E0940108BC
:100D000080FFFF80F0DD020870B586B00BF000FABE
:100D10000C230226CDE901631DA14FF4B072CDE989
:100D20000321009010233C223146002009F0CBFE25
:100D300004461A49204609F025FF6FF07F452946F1
:100D4000204609F036FF0BF0E3F915490E2440F276
:100D500061130A68CDE9016412A1CDE90331009065
:100D600002EBD2706FF0180101EB60001023322209
:100D7000022109F0A8FE04462946204609F019FF81
:100D800006B02046BDE87040094909F0FBBE0000EE
:100D900057696C6466697265204F5300F0DD020884
:100DA000146E002031313A35363A30300000000000
:100DB000E0D602080148006870470000C80800201B
:100DC000F8B50546006801F0B5FC0090448ED0F8F7
:100DD0008860684601F018FD06B1012604F00104A0
:100DE00028680CF0BEFA0EB1002006E00CB101201C
:100DF00003E008B1022000E003201B4951F8201055
:100E0000686858B302280CD0052802D0122828D1CF
:100E100003E028460DF050FE23E0284610F03FFB8B
:100E20001FE06A69E8694FF0FF33801AA0F10802F9
:100E300003EB6204421CAB69001B4510A3EB620686
:100E4000C86903F06CFB06E03219311B284602F03A
:100E500077FA641E6D1C002CF6DA02E028680BF0AD
:100E60006FFF0020F8BD000050EE0208044A03495D
:100E7000116004490A6B0863104670477002002035
:100E8000500700205407002038B50D46002401F01B
:100E900051FC0090C06B294601F04EFD05466846A6
:100EA00001F0B2FC1DB1284601F044FC0446204686
:100EB00038BD70472DE9F041044694B0006800F059
:100EC000B7F908B1D94D01E0D84D2C356068152827
:100ED0001ED00CDC0B281FD004DC00287ED0052897
:100EE0007DD12EE10E287BD01228F9D141E11628C0
:100EF00006D0172808D0182808D01C28F0D109E0FF
:100F0000E86914B0BDE8F081286AFAE7686AF8E792
:100F1000A86AF6E76869F4E720680B901C200C903B
:100F2000206801F007FC0390016D0BA88847064676
:100F300003A801F069FC022E0EDB95E807008DE89E
:100F40000700D4E904023346A16904F09DFC20693E
:100F50008719A069801B2BE0286803F0E0FA21695B
:100F6000E8690A18521E606902F0EAF9A269E869A4
:100F7000111A491C606902F0E3F9676920697F1C56
:100F8000394602F02DFA3946A06902F029FA68685C
:100F900003F0C5FA20693946401C02F021FAA06925
:100FA0003946401E02F01CFA2769A069BF1C801E4A
:100FB0008046286803F0B3FA42463946606902F079
:100FC000BFF9686803F0ABFA60694246401C3946D5
:100FD00002F0B6F9686A02280FDD02E015E1AFE021
:100FE00000E1A86803F09BFA61696A6A881C8B18A3
:100FF00001465B1E4246384627E0296AB14226DD9B
:101000006069022E074600F1020801DB374401E067
:1010100007F10207206901DB304401E000F1020022
:1010200022693B460A44A2F10102414602F0F0FA6D
:10103000022E02DBA069821B01E0A269921EA06958
:10104000E9693B46401A401C414602F0E1FA022E93
:1010500002DB6069064401E06669B61CE76928683E
:101060007F1E03F05CFA3A463146206902F03EFAF0
:101070003A463146A06902F039FAE7696868BF1E4E
:1010800003F04DFA20693A46401C314602F02EFA30
:10109000A0693A46401E314602F028FAE869022863
:1010A00002DC286A022823DDA86A022802DDE16941
:1010B0000F1A01E0E769BF1EA86803F030FAE9697A
:1010C000022909DD20693B46421800F1020C521E3C
:1010D0003146604602F09CFA286A022808DDA269BF
:1010E000E8693B46101A401C921E314602F090FA05
:1010F000286803F014FAD4E90620216902F020F9E7
:10110000686803F00CFAA2692169E069521E491C63
:10111000401E02F015F9A86A022811DD2669A169AE
:10112000E469B61C271AA1F102087F1CA41EA86856
:1011300003F0F5F9234642463946304602F068FA94
:1011400072E0208A06B2ADF81460A08A01B2ADF850
:101150001610208B02B2ADF81820A08B03B2ADF8A8
:101160001A30D5E90304CDE90004304602F0ACF8AA
:101170005AE0208A298B0844ADF81400A08AADF803
:101180001600208B298B401AADF81800A08BADF803
:101190001A00206801F0CEFA0390006FF0B102202F
:1011A00003F046FA039991F87C00C0F3C00001EB0C
:1011B0008000006C03F0B3F90398406B03F0CCF9A6
:1011C0000398006F01F0B6FA03990A90B1F95A201A
:1011D00005A901F0C7FE0AA801F016FB03A801F05B
:1011E00013FB21E0208AADF81400A08AADF81600A8
:1011F000208BADF81800A08BADF81A00A86803F09A
:101200008EF905A802F030FA0EE0206801F092FA9B
:10121000039030F85A1F41F00C01018003A801F03F
:10122000F3FA20680BF08CFD00206AE640030020F2
:1012300038B505004FF000040FD002F0ADFB284692
:1012400001F078FA009090F87C00000700D50124A6
:10125000684601F0D9FA03F0C9FD204638BD30B523
:1012600004468BB0006801F065FA009090F87C109D
:10127000246A006FC1F3C00508B101F05BFA069063
:10128000E068029020690390A088401EADF810002D
:10129000E089ADF812002089401CADF81400608A86
:1012A000ADF81600BDF80800401CADF80800BDF808
:1012B0000A00401CADF80A00BDF80C00401EADF855
:1012C0000C000098406B03F047F9009808AA02A9A7
:1012D000B0F95A30069803F01BFF009800EB850028
:1012E000806B06F0A5F8009800EB8500006C06F016
:1012F000D7F808AB02AA04A906980AF0ABFB684627
:1013000001F082FA069810B106A801F07DFA0BB040
:10131000002030BD074A0649054B1160064A083BCC
:10132000D16958601B68C2E9063008467047000062
:1013300034030020900700209407002038B50C46A5
:10134000054602F029FB55B1284601F0F3F900905B
:101350000466684601F058FA28460BF0D3FABDE857
:10136000384003F043BD2DE9F34F85B000270C460C
:10137000B846059801F0DEF90090C06D012185683E
:1013800005982A68904782462A6803210598904765
:1013900004902A6802210598904703902A6800214A
:1013A00005989047064600980BF078FE8346009813
:1013B0000BF07BFE8146009890F83210890601D52B
:1013C000B0F9588000F036F805460098C06E10B1AC
:1013D0000BF007F8074625806780A4F804A0049A5C
:1013E000ABEB020006EB0802401E2A4420813A447F
:1013F000E280039BA9EB0302521E6281A4F80CA0B9
:1014000020827019E681401E6082684601F0FCF976
:10141000B4F90C000190B4F91000029002AA01A9DD
:10142000059800F039F80198A0810298208207B051
:10143000BDE8F08F10B50146002091F832209206E9
:1014400007D5B1F95400002803D1486B02F03CFAEB
:10145000801C10BD70B58AB00C46054601F06AF9D3
:101460000990C06D866809A801F0CEF9009534B1E5
:10147000012C06D0022C0BD0032C04D10AE018203A
:1014800000E0162001907168684688470AB070BD78
:101490001520F7E71720F5E72DE9FC479046894628
:1014A000044601F047F90090C16D056868468E68F2
:1014B00001F0AAF9326800212046904706462046EE
:1014C0000AF04DFE2F1404462DB227E001F032F948
:1014D0000190B0F90010B0F90420B0F90230491BB6
:1014E000521BDB1BB34212D190F82800000607D52F
:1014F000D8F8000088420ADB491EC8F8001006E050
:10150000D9F80000904202DC521CC9F8002001A862
:1015100001F07AF920460AF0C7FE0446002CD5D126
:10152000BDE8FC878000A0F1C040002904D001681C
:1015300041F00101016070470168024A11400160F9
:1015400070470000FEFF0F0010B5D0E901121143F3
:10155000D0E903231A4311434269114382691143BD
:10156000C2691143026A1143426A1143826A1143FC
:10157000C26A1143026B114302689200A2F1C04299
:1015800011608168082907D101688900A1F1C04173
:101590000A6842F040020A60416BD1E9002342EA46
:1015A00003128B688C891B0243EA04431A430B8A9B
:1015B00042EA03520B7D896942EA03620A430168E9
:1015C000491C8900A1F1C0410A60C16AB1F5804F90
:1015D00008D000686FF070418000A0F1C040C0F8F2
:1015E000041110BD816BD1E9002342EA03128B681C
:1015F0000C8A1B0243EA04531A430B7D896942EAB1
:10160000036200680A438000A0F1C040C0F80421D2
:1016100010BD000001A016F017B9000046554E5F3E
:1016200049434F4E303030436C69636B65640A0048
:1016300001A016F009B9000046554E5F49434F4ED0
:10164000303031436C69636B65640A0001A016F0A9
:10165000FBB8000046554E5F49434F4E3130304392
:101660006C69636B65640A0001A016F0EDB80000B8
:1016700046554E5F49434F4E313031436C69636B81
:1016800065640A0001A016F0DFB8000046554E5F01
:1016900049434F4E313032436C69636B65640A00D5
:1016A00001A016F0D1B8000046554E5F49434F4E99
:1016B000313033436C69636B65640A0001A016F036
:1016C000C3B8000046554E5F49434F4E3130344356
:1016D0006C69636B65640A0001A016F0B5B8000080
:1016E00046554E5F49434F4E313035436C69636B0D
:1016F00065640A0001A016F0A7B8000046554E5FC9
:1017000049434F4E313036436C69636B65640A0060
:1017100001A016F099B8000046554E5F49434F4E60
:10172000313037436C69636B65640A0001A016F0C1
:101730008BB8000046554E5F49434F4E3130384319
:101740006C69636B65640A0001A016F07DB8000047
:1017500046554E5F49434F4E313039436C69636B98
:1017600065640A0001A016F06FB8000046554E5F90
:1017700049434F4E313130436C69636B65640A00F5
:1017800001A016F061B8000046554E5F49434F4E28
:10179000313131436C69636B65640A002DE9F043B4
:1017A0000446C56887B090468946002002F0C8FE0E
:1017B000064625B1287910B146F0020001E026F076
:1017C000020002F0BDFE2069012558B1D4E90212E1
:1017D0008DE82600039563882288046841464846C0
:1017E000A0471EE0124F134B214638681B68427C0D
:1017F000E068984730B9E088012801D0002001E076
:101800003868806BA288E388A1680095CDE9041050
:10181000CDE902320195638822884146484605F0A9
:10182000EBF907B03046BDE8F04302F089BE000096
:10183000F8000020F00000201CB50024019401AC49
:10184000009400F0E7F81CBD2DE9FF4F83B08146FE
:1018500006988A46A0EB0A08109E00200090A2EB92
:1018600009043568934654EA080018D02046FEF76C
:101870007DFD07464046FEF779FD87420BDA20469C
:10188000444680464846D14682465846DDF818B060
:10189000069001200090002C07DD204606E007B0EE
:1018A0004846BDE8F04F00F03BB96042A0420AD084
:1018B0004846D9466442C8F1000883464FF0FF37D6
:1018C000DDF818A000E001275148B8F1000F11D051
:1018D00004EBD4714FEA610B01DACBF1000B4C48F9
:1018E0000068807E88B3002F02DA306820443060C0
:1018F00000257BE000990029016821D0897E11B183
:101900000027804615E007B05A4649465046BDE8D4
:10191000F04F05F0D5BA28466D1C14F083FE38B997
:10192000D8F8000009EB0701C06E426850469047A6
:101930007F1CA742EFDD6D1E356007B0BDE8F08F5C
:101940008A7E1AB10027804617E019E0C86E5A4611
:101950005146036807B04846BDE8F04F184728468F
:101960006D1C14F05FFE38B9D8F8001009EB0700C1
:10197000C96E4A68514690477F1CA742EFDDDAE7FF
:1019800000250FE008FB05B090FBF4F101EB0A0025
:10199000009951B11E4A09EB05011268D26E5268D6
:1019A00090476D1CA542EDDDC7E7194909EB05031A
:1019B0000968C96E4A6801461846F1E708FB05B098
:1019C00090FBF4F101EB0A0001903068384430607C
:1019D00014F028FE48B9009890B10D4809EB0501B4
:1019E0000068C06E4268019890476D1CA542E5DD15
:1019F0003068002F01DA20443060C01B30609CE763
:101A0000034909EB05000968C96E4A680199EBE7CB
:101A1000F80000202DE9FF470F4640491646804652
:101A200009680C981D460A7E012A1CD0A8EB060006
:101A3000791B50EA01031CD0A2F1010915F038FF0F
:101A400000F58060824604F07BFB00FB09F4504601
:101A500004F07AFB00FB09F1002C0CDAC4F50070ED
:101A6000801240420AE00090324639464046FFF775
:101A7000EBFEBDE8FF8704F50074A012002904DA2C
:101A8000C1F5007189124C4202E001F500718C121F
:101A9000002804DD411C01EBD171491003E000EB8B
:101AA000D0714910401E00EBD0704210002C04DDB4
:101AB000601C00EBD070401003E004EBD4704010C9
:101AC000641E04EBD47308EB0104ADF800403C182D
:101AD000ADF80240A8EB02045B10B21AADF8044066
:101AE000ADF808203144FC1AEA1AADF80C1028446D
:101AF000ADF80A20ADF80E000023ADF806401A46F6
:101B00000421684600F07AF8394640460FF0C4FBDD
:101B1000294630460FF0C0FBABE70000F80000207C
:101B2000064A13681A7E012A05D0521E02EBD272B1
:101B3000521000F005B8DA6E52681047F800002025
:101B40002DE9F05F0646884640F2C32050434FF42B
:101B50007A7190FBF1F702FB02F002EBD27100EB1D
:101B6000610B254914467F1C09683244301BC96E3D
:101B70000B684146984701253AE000BF05FB05F098
:101B800004FB040159451CDDBC4219DD1A4B06EB70
:101B9000050AA6EB05091B68AAF1010208EB04017E
:101BA000DB6E09F101001B689847134BAAF1010293
:101BB000A8EB04011B6809F10100DB6E1B68984764
:101BC000641E0D4806EB040AA6EB0409006808EB46
:101BD00005015246C06E0368484698470648A8EB80
:101BE000050152460068C06E0368484698476D1C60
:101BF000BD42C3DDBDE8F09FF80000202DE9FF4F96
:101C000040F6FF740F46664283B09B468146002132
:101C10000BE000BF09EB8100B0F90200A04200DA3E
:101C20000446B04200DD0646491CB942F2DB684872
:101C30000068406900280DD0B0F906101A46A1EBE3
:101C40000B01B14200DA0E46B0F90200801AA04240
:101C500000DD0446B5E0DFF87CA100200546CAF8A7
:101C6000000089E0781E854201DA6B1C00E0002349
:101C700009EB850C09EB8302BCF90200B2F90210F2
:101C8000A04245D1A14215D139F92330059A39F93D
:101C9000251003EB020C4E4A05981268084404EB29
:101CA0000B01D26E6045136801DA62462BE00246F2
:101CB000604628E02846A4464FF000087A1E0BE054
:101CC00008B1401E00E0781E09EB8003B3F9023032
:101CD000634504D108F101089045F1DB2346A34296
:101CE00049D0A3EB040239F92500A1EB040C059BB4
:101CF00092EA0C0209D4364A184404EB0B0112682C
:101D0000D26E13680246984735E00BF017FF32E0B9
:101D1000A14230D001DBA04203DDA0422BDBA14277
:101D200029DCE04688420ADC0346A04223DC084660
:101D3000A14220DBB8F900C0B2F9001008E00B4660
:101D4000A14218DCA04216DBB2F900C0B8F90010BD
:101D5000E21AA1EB0C0151430029A0EB030202DDC2
:101D600001EB620102E0A1EB6201491CC01A91FB88
:101D7000F0F06044C9E76D1CBD42FFF673AF0598F3
:101D8000009004EB0B00019000208046054613E014
:101D90001149B8F1000F31F915A009D0009901EBF4
:101DA0000A0208440A490968C96E0B6801999847F4
:101DB00088F0010850466D1C064909688D42E7DB32
:101DC000641CB4427FF747AF07B0BDE8F08F000056
:101DD000F8000020A408002014D5002010B5002031
:101DE00002F086FB6FF07F4002F099FB012002F0C9
:101DF00001FC002002F00CFC002002F019FC002085
:101E000002F09EFB0448006802F0A6FBBDE810400B
:101E1000002002F0C1BB0000F40000202DE9F041D9
:101E20000022CC7804F00F03E40601D58C7823431C
:101E30000C784FF00F0714F0FF0F4FF0010C1CD07F
:101E400005680CFA02F40E882640A64211D19600CD
:101E500007FA06F825EA080503FA06F848EA050530
:101E6000CE78282E02D0482E02D002E0446100E055
:101E70000461521C082AE4D305600A88FF2A1ED98F
:101E80004568002202F108060CFA06F40E88264086
:101E9000A64210D1960007FA06F825EA080503FACB
:101EA00006F848EA0505CE78282E00D14461CE78A0
:101EB000482E00D10461521C082AE3D34560BDE8D6
:101EC000F0810246002092680A4200D0012070474B
:101ED000416170470161704770B50C46054600F0DE
:101EE000F1F8A8682168C16261680163A168416373
:101EF000490707D5D0E90021C0E90012D0E9022145
:101F0000C0E90212A18981842169002903D001DC82
:101F10004FF00001016270BD2DE9F0411E461746E9
:101F20008846054600F0CEF8AC686822414604F5C4
:101F30008470FEF735F92846B8472846B047286927
:101F400080688047A062BDE8F081000010B50446BB
:101F500000F0B8F8A0680E494C30114AC1650D492F
:101F600081650D4901660D4981660021C1661368CE
:101F700043660C4BC0E91E315168416730F8261C9E
:101F800021F0030120F8261C0749416410BD000020
:101F9000256701085D6B0108ED660108E15E010837
:101FA0009001002045600108F565010810B5044660
:101FB00000F088F8A4680C489034102120650B4884
:101FC00060650B48A0650B48E0650B48E0600B4876
:101FD0002061206BA06654F890292046904710207D
:101FE000A0630748606410BD75010108D51E010893
:101FF00005200008352100089B5E01088570010856
:1020000048FA0208F8B5846815460F4694F8260089
:1020100080074CD5D4F8FC30204698470646D4F8C3
:1020200000312A46394620469847D4F89430054670
:102030001BB100220121204698472069B04201DDF2
:10204000012000E00020A169B14201DA012100E095
:10205000002108436169A94201DD012100E000215E
:102060000843E169A94201DA012100E000210843A7
:102070000AD06068401E00902368D4F8A4705B1EEC
:10208000002211462046B847D4F8A8302A463146E7
:1020900020469847D4F89C1020468847D4F89430BE
:1020A00005466BB1012200212046984708E0D4F88C
:1020B000A83020469847D4F89C102046884705460B
:1020C0002846F8BD70B504468068002812D14FF448
:1020D000B875284600F0A4FA2A460021A06003F053
:1020E000DFFFA0680221C18401210464016202496A
:1020F000C0F8041170BD0000FD20000810B590B0BC
:10210000044620220A496846FEF74AF80849202278
:10211000203108A8FEF744F8606B5DF82010C4F881
:10212000FC1008A951F82000C4F8000110B010BD3F
:10213000A4D002082DE9F84384689846154694F81F
:1021400026000F46800740D5D4F8FC30204698473B
:102150000646D4F800312A463946204698470546B7
:102160002069B04201DD012000E00020A169B142F8
:1021700001DA012100E0002108436169A94201DD83
:10218000012100E000210843E169A94201DA0121AF
:1021900000E0002108430AD06068401E00902368D8
:1021A000D4F8A4705B1E002211462046B847D4F82C
:1021B000A8302A46314620469847D4F8A02001B0DE
:1021C00041462046BDE8F0431047D4F8A830F2E776
:1021D0002DE9F04FDFF828B191B04FF0FF35DBF873
:1021E0000030B3F922100691DE69B3F924A0F46936
:1021F000A189814206D8E289824203D3471AD4F8E2
:10220000008012E0D4E90181002970D00A8882425E
:102210006DD84D8885426AD3801A82B2486800EB37
:102220008200B0F90070B0F90250781C5FD0307EA7
:10223000A27C014600FB02F9207CCDE90810B3F92D
:102240002A60304605F03EF9C0B20E90DBF800106F
:1022500007FB0980A37C8A6B0127CDE90402CDE945
:102260000273C869DDE90832C17E807ECDE90001D4
:102270005146069804F0C0FC681C18D046F00200D5
:1022800005F020F9DBF80000A37C05FB0981826BD7
:10229000CDE90273CDE90412C069DDE90832C17EDF
:1022A000807ECDE900015146069804F0A5FCDBF8DC
:1022B00000005D46C069417E007E814214D9022E35
:1022C00012D086F0040005F0FDF82868C069027E8F
:1022D000C37E857E02FB03A1437E099A0698534480
:1022E00002FB050204F016FE0E9805F0EBF8DBF891
:1022F0000000627C418C1144418411B0BDE8F08F34
:10230000F800002004480068C069C06909B1027C77
:102310000A60407C70470000F8000020022008801E
:102320007047C06982898A4202D8C2898A4210D223
:10233000806880B102888A420DD843888B420AD3D4
:10234000406800EB8100A0EB8200B0F9000000289B
:1023500001DB012070470020704700002DE9F043A9
:102360002F4C034687B020681946B0F92A80C0690F
:10237000C06900F082F800284ED041680088181A21
:1023800001EBC0054046AE7805F09CF88146206818
:102390006A680123816BCDE90236CDE90421C16968
:1023A000CB7E8A7ECDE900230B7EB0F924102A78FB
:1023B000B0F9220004F020FC2068C069477E067E48
:1023C000B7421DD9C07E47434643B8F1020F17D02C
:1023D00001F0E5F9804601F0ABF902F0A0F82168C0
:1023E0002A78CB69B1F92200B1F92410DB7E02FB17
:1023F0000302CB19314404F08DFD404602F08FF802
:10240000484605F05FF820686A78C369B0F9221081
:102410009B7E02FB0311418407B0BDE8F0830000FE
:10242000F800002030B50E4C05460B4620682946C2
:10243000C069C06900F021F8002810D04168008808
:1024400024682A1A0120E46900EBC200085CA47E1B
:102450006043002B03D011F832106143196030BD86
:10246000F800002001200880704700B5C06900F026
:1024700004F8002800D0012000BD06E002888A424E
:1024800002D842888A4202D280680028F6D170477A
:1024900070B500240E4D16E028690E4900EBC410FB
:1024A000001D78220968FDF77BFE2869002100EBFA
:1024B000C410016000F10C018161011D0A1DC0E919
:1024C0000F12641C4164A8688442E5DB70BD000003
:1024D00080060020F800002070B50D490B48086008
:1024E000084603F099FD0A4C143CA068C501284633
:1024F00000F096F82A460021206103F0D1FD4FF04C
:10250000FF302060BDE8704002F0A6BD213B01080D
:1025100094060020F8B50C0005460FD001F03CFAF7
:10252000204600F017F8060010D000F003F922460C
:1025300000902DB12946FDF733FE04E00020F8BDE0
:10254000002103F0ADFD684600F05EF902F04EFC9C
:102550003046F8BD10B5040009D001F01DFA204640
:102560000BF0B8FB044602F041FC204610BD0020F1
:1025700010BD38B5054601F00FFA2846FFF7EAFF0F
:10258000040009D000F0D6F82A460021009003F09C
:1025900087FD684600F038F902F028FC204638BD77
:1025A000024A106021F00300506070474CD30020B5
:1025B00010B5040016D001F0EFF90B48006B10F8CD
:1025C000341059B1022909D2042101EBC401415848
:1025D00048680BF0CFFA204613F042FCBDE81040EB
:1025E00002F004BC10BD000090D20020002805D0ED
:1025F000034A916B016001B148609063704700002D
:1026000090D2002010B5044601F0C6F92068FFF70B
:10261000CFFF00202060BDE8104002F0E7BB0000C3
:102620002DE9F041044610F0F3FF2648E41C24F0A5
:102630000305C16B2D1DA94200D90D46846B13E023
:1026400054F8042CAA420ED184B1216809B1626801
:102650004A60616809B122680A60826BA2422ED189
:10266000216881632BE02468002CE9D18046416B0E
:1026700080680F1857F8040C3E1A306838B10020F3
:1026800013F066FD57F8040C3E1A3068B8B970684C
:10269000A84214DB3044441B304613F011FDD8F837
:1026A0000810491BC8F80810D8F810102944C8F8B9
:1026B000101070683146401B0BF05CFA20C42046B5
:1026C000BDE8F08190D2002010B5002410F0A0FFEA
:1026D0000C490F2001EBC002126C1AB101EBC000D3
:1026E000006C08E0401EF5D508E04168A14200D921
:1026F0000C46806810B180680028F6D1A4F10C0067
:1027000010BD000090D20020002138B104490422FD
:1027100002EBC000096B085841680C390846704745
:1027200090D2002002484169491C41617047000075
:1027300090D2002005498A69521C8A61096B01EB1D
:10274000C0010A78521C0A7000F076B890D20020BE
:102750007CB506460C460846FFF7FCFE050020D077
:10276000FEB13046FFF7D0FFA04200DA044601F088
:1027700013F92846FFF7DEFF00903046FFF7DAFF37
:102780000146019022460098FDF70AFD684600F0D8
:102790003BF801A800F038F83046FFF709FF02F0D7
:1027A00025FB28467CBD000010B501F0F5F8FFF7C9
:1027B0008BFF64220849B0F5800F04D990FBF2F436
:1027C000C869444303E0C9694143B1FBF2F402F034
:1027D0000DFB204610BD000090D2002005491028B6
:1027E00005D94A68B0EB520F02D3500800E0102020
:1027F000886070474CD3002002484169491E4161FE
:102800007047000090D200200A4902680B6B52F812
:10281000082C03EBC2021378022B03D38B690BB194
:102820005B1E8B611178491E117000210160084602
:102830007047000090D20020002806D003490422EF
:1028400002EBC000096B08580830704790D2002096
:102850002DE9FC414FF000060B465FEA00083446C4
:102860002BD032B111461846FFF754FE060000D1B6
:1028700001244046FFF75EFF0090078845686846E0
:10288000FFF7C2FFCCB9B900091D2846FFF760FF6A
:10289000050015D0FFF74EFF019040F8276001A812
:1028A000FFF7B2FF4046FFF745FF00904560018803
:1028B000491C01806846FFF7A7FF2046BDE8FC8160
:1028C0003046FFF775FE0124F7E70820FFF751BEF9
:1028D0007CB5050023D0FFF72DFF00904068C0B104
:1028E000FFF728FF0024019005E0019800EB840029
:1028F000FFF788FE641C00980088A042F5DC01A860
:10290000FFF782FF0098001DFFF77CFE0099002072
:1029100008806846FFF778FF2846FFF749FE7CBD30
:1029200038B5002430B1FFF705FF009004886846F1
:10293000FFF76AFF204638BD38B50D46002448B180
:10294000FFF7F8FE2946009000F016F804466846A6
:10295000FFF75AFF204638BD38B50D46002448B170
:10296000FFF7E8FE2946009000F018F80446684694
:10297000FFF74AFF204638BD38B50D4601880024D0
:10298000A94209D9406838B1FFF7D4FE009050F849
:1029900025406846FFF738FF204638BD10B50024B3
:1029A000FFF7EAFF10B1FFF7C5FE0446204610BD51
:1029B00010B5136808290FD85C1814600022227023
:1029C000064A04E000F00F040009145D5C540C009A
:1029D000A1F10101C9B2F5D110BD0000480C0308F6
:1029E0007CB50D46064604F069FB044604F072FB14
:1029F000CDE90005002223461146304600F001F8DB
:102A00007CBD2DE9FE431E46DDE90A541746884683
:102A1000814604F0ABFA182800DD18200095CDE9B6
:102A2000014033463A464146484613F03DFCBDE876
:102A3000FE83000070B514460D46064600F0ACFF5C
:102A4000204600F0B9FE0300174804EB840109D0CA
:102A500050F8210041688068711A2A1A184601F05E
:102A60008BFD1CE000EB8104A268B24201D0012280
:102A700000E00022E368AB4201D0012300E0002324
:102A80001A430CD0236943B150F821008168406893
:102A90006A1A311A184601F0AFFCC4E90265BDE8B4
:102AA000704002F0A3B90000ECD4002010B5C2B20F
:102AB000CBB2D21A02D5C2F1000212B293B2C0F365
:102AC0000722C1F3072403FB03F3121B01D5524273
:102AD00012B2000C92B2A0EB114002FB023200B223
:102AE000002801DA404200B280B200FB002010BD95
:102AF00010B50021084600F0FBFE40F6FF72504280
:102B0000BDE8104013460146AFF300802DE9FC41BB
:102B10001C4615460E46074600F03EFF042004F012
:102B2000D1FC80461248C068C16C006D0F44064459
:102B30000D440444ADF80070ADF80450ADF80260E7
:102B4000ADF8064068460AF0B7FA07E023462A4681
:102B50003146384604F0DEF90AF062FA0028F5D171
:102B6000404604F0AFFC02F041F9BDE8FC810000F2
:102B7000EC000020B0F90630B0F90420B0F90210E2
:102B8000B0F90000FFF7C2BF2DE9F0411C46164620
:102B90000D460746022B02DB0020BDE8F0811C2019
:102BA000FFF73EFD0028F8D00DB105610AE0094AA3
:102BB00052F8241009B905E011460A68002AFBD131
:102BC0000969016184618682002101604160C0E978
:102BD0000217E2E71001002070B51D46FFF7D4FF91
:102BE000040001D000F00EF8E068006820B9034846
:102BF000006800EB85008465204670BDF800002069
:102C0000FFF7F4BC70B590B38269022A30DA1C4C2D
:102C100054F8221019B944F822002FE019464B68E5
:102C2000002BFBD106E0CB68C5681B682D68AB4262
:102C300003DD09680029F6D11AE0C1B1CB68C66886
:102C40001B683668B3420CD1838A012B05D008E09B
:102C50001946DB681B68AB4203DB0B68002BF7D11E
:102C600029B14B6833B118604A68426004E0FFE75D
:102C7000012070BD44F8220048600160002070BD52
:102C80001001002010B503E00468FFF7BBFF2046E9
:102C90000028F9D110BD14F071B900002DE9F04100
:102CA0000026DFF834800D4F354600BF58F8254028
:102CB00009E0E0680068385C20B1204614F05EF955
:102CC000266026462468002CF3D16D1C022DEDDB16
:102CD0003046BDE8F08100001001002034D0020829
:102CE000022801DB00207047054A52F8200004E06A
:102CF000C26812688A42F6D000680028F8D170478E
:102D000010010020022801DB00207047054951F81E
:102D1000200004E0C16809680029F6D00068002896
:102D2000F8D17047100100202DE9F8431D461646E2
:102D3000884604000CD0FFF7FDFC0090006807688F
:102D40006846FFF761FD2B46324641462046B847AC
:102D5000BDE8F88338B504004FF000000AD02046E3
:102D6000FFF7E8FC0090006845686846FFF74CFDF7
:102D70002046A84738BD38B504004FF000000AD0FF
:102D80002046FFF7D7FC0090006885686846FFF78B
:102D90003BFD2046A84738BD2DE9F041044602F02E
:102DA00047F906191EE000BF00F0F8FB052F00DD13
:102DB000052700F0F1FD11480568FFF7B3FC2C0072
:102DC00017D000BF02F012F8641EFBD1384602F0A3
:102DD0001DF91DB100F0E0FD6D1EFBD1FFF70CFDEC
:102DE00002F004F802F024F9371A002FDCDCBDE809
:102DF000F081384602F00AF9F0E700008C06002066
:102E00002DE9FC4706005FD000F0C6FD00F0DEFCB7
:102E10003C4C81462068B0F9228000F037FD2168E3
:102E200007468A8CD01B888441E000BF47F6FF71BB
:102E3000304602F05DFF82460146304602F02EFF2A
:102E40002168054691F82C0000F00300012841D0CC
:102E500002283BD000204A8C101A4884ADF80000AC
:102E60006A1E1044ADF80400888CADF80200A9F188
:102E700001010844ADF806006A465146304602F0AA
:102E80001DFB2168BDF8020088845146304601F0E0
:102E900089FE064430780A281ED00D281CD0BDF8C3
:102EA0000000216828444884307818B1761C3078B6
:102EB0000028BBD12068818C39448184818D21F028
:102EC0000301818501F092FFBDE8FC8705EBD57019
:102ED0004010C0E72846BEE7206890F82C1001F0AB
:102EE000030101290BD0022909D0018C41843178DA
:102EF0000A29D9D1828C02EB09018184D4E7A0F898
:102F00002280F4E7F800002070B514460D4606460E
:102F100000F042FD05480068458484843046FFF790
:102F20006FFFBDE8704001F061BF0000F8000020B5
:102F30002DE9F04107460A4815460E460068B0F9EB
:102F40002C0040F0020001F063FB04462A463146A3
:102F50003846FFF7D9FF2046BDE8F04101F058BBE5
:102F6000F800002047F6FF7300F042B82DE9FF4754
:102F70001F460C9E90460D46814686B30024009461
:102F8000019400F009FD9DB128680090174A696816
:102F9000019110605160284609F034FF040007D009
:102FA0000246294602A802F010FF02A809F02AFFF3
:102FB000304613F03FFE05467168684688473B4639
:102FC00042466946484602F0D1FA204609F01AFF07
:102FD000284613F02FFE01F009FFBDE8FF87FFE749
:102FE00004B0BDE8F04700F003B800003806002048
:102FF0002DE9FC411F4690460D4606004FF00004A7
:103000001AD000F0C9FC65B1284609F0FBFE0400A7
:1030100007D002462946684602F0D7FE684609F006
:10302000F1FE3B4642462946304602F09FFA2046D2
:1030300009F0E8FE01F0DAFEBDE8FC812DE9FF4F62
:1030400085B090468A4607007DD000F0A5FCDAF8EE
:103050000040DAF8046021B230B2401A401C0290FD
:1030600000F0B4FB054618F00C0F1ED03846089A45
:10307000029901F0C5FE08F00C01042904D00829CA
:1030800002D00C2911D104E0311400FB1510401CB2
:1030900009E02114C1EB264200FB1520401C00EB87
:1030A000D07001EB600060F31F44504601F02BFA32
:1030B000A5F1010B04903846089A029902F0BEFF70
:1030C00003904FEA244909EB0B0060F31F46CDE95A
:1030D00000463846039902F0E1FD18F003010ED0D6
:1030E00001292AD002290ED1BAF90420BAF9001018
:1030F000521A101A00EBD07001EB600001E0BAF830
:103100000000ADF800006A463846039902F0D6F98F
:103110003846089A029902F087FF074409EB050038
:1031200060F31F4438780028C5D1049801F0EBF90A
:1031300009B0BDE8F04F01F059BEBAF80410081A02
:10314000401CDEE7FFE709B0BDE8F08F7CB5144610
:103150000D46064600F020FC11480068C16C006D69
:103160000D4404443188681E0844ADF80400ADF8ED
:1031700000507188601E0844ADF80600ADF80240AA
:10318000684609F099FF06E0224629463046FEF7D8
:1031900005FB09F045FF0028F6D101F027FE7CBDB4
:1031A000F80000201CB50A460146684602F026FFDA
:1031B00000F0F2FB2548BDF80010006830F84C2FF5
:1031C0001144ADF80010BDF8021082881144ADF82A
:1031D0000210BDF8041002881144ADF80410BDF8C7
:1031E000061080880844ADF80600684609F064FFC0
:1031F00027E000BFBDF900400BE000BFBDF90210A1
:10320000204603F029FEBDF90610204603F024FEF7
:10321000A41CBDF90400A042F0DABDF902400AE0A6
:10322000BDF90000214603F017FEBDF90400214658
:1032300003F012FEA41CBDF90600A042F0DA09F06A
:10324000EFFE0028D6D101F0D1FD1CBDF800002012
:103250002DE9F04F87B09B46DDE9109892460C4669
:10326000054600F099FB16480168C86C096D4719BE
:103270000E1900EB0A0501EB0B04ADF81070ADF868
:103280001450ADF81260ADF8164004A809F014FF10
:1032900088B1DFF830B04FF0000ACDE90098CDE9F1
:1032A00002BA2B462246394630460DF08CFE09F014
:1032B000B7FE0028F1D101F099FD07B0BDE8F08F0D
:1032C000F8000020C16E00082DE9F04F87B09B4642
:1032D000DDE9109892460C46054600F05DFB164865
:1032E0000168C86C096D47190E1900EB0A0501EB5E
:1032F0000B04ADF81070ADF81450ADF81260ADF8D5
:10330000164004A809F0D8FE88B1DFF830B04FF0BD
:10331000010ACDE90098CDE902BA23462A46314692
:1033200038460DF050FE09F07BFE0028F1D101F087
:103330005DFD07B0BDE8F08FF8000020016E0008C9
:103340002DE9FC4114460D46064600F025FB114FC1
:103350003968C86C096D054404440E44ADF800504A
:10336000ADF80440ADF80260ADF80660684609F0BB
:10337000A3FE08E0386822463146C06E036828463E
:10338000984709F04DFE0028F4D101F02FFDBDE86B
:10339000FC810000F80000202DE9F0411C46154694
:1033A0000E46074600F0F8FA0C480168C86C096D33
:1033B000074405440E440C44002009F07DFE07E05C
:1033C00023462A4631463846FEF736FA09F028FEEB
:1033D0000028F5D1BDE8F04101F008BDF80000205B
:1033E0007CB50C46064600F0D7FA0F4D2868C16C34
:1033F000006D0E440444ADF80460ADF80060ADF813
:103400000640ADF80240684609F056FE07E028681D
:103410002146C06E42683046904709F001FE002800
:10342000F5D101F0E3FC7CBDF80000202DE9FC4162
:103430001C4616460D46074600F0AEFA1A480168CB
:10344000087ECA6C096D401E17440D440C44391A9D
:103450001644ADF800103118ADF80410291A2044B4
:10346000ADF80600ADF80210684609F025FE15E03B
:1034700032462946384603F0C3FC324621463846D8
:1034800003F0BEFC621E691C384603F019FD621E83
:10349000691C304603F014FD09F0C2FD0028E7D195
:1034A00001F0A4FCBDE8FC81F800002070B58EB0EE
:1034B00015460E46044600F06FFA214606A802F0B3
:1034C0007AFDBDF81A30642B0CD1002000900AABB5
:1034D00001AA214606A801F0D3FF2A46314601A8D9
:1034E000FFF734FE01F082FC0EB070BD7CB51446CF
:1034F0000D46064600F050FA0F480068C16C006D9A
:103500000E4405440444ADF80060ADF80460ADF825
:103510000250ADF80640684609F0CEFD06E02246AE
:103520002946304603F0CCFC09F07AFD0028F6D19C
:1035300001F05CFC7CBD0000F800002010B50446E2
:1035400001F06AFD04490968002903D02046BDE85E
:103550001040084710BD00004006002030B59DB067
:103560000D460446CDF870D06F220021684602F067
:1035700097FD6422214668460AF0B4FE6846FCF7CF
:1035800041FE1C991CAA08441C900821284601F001
:1035900095FD6846FFF7D2FF1DB030BD10B5002481
:1035A00000E0012400F004F80028FAD1204610BD04
:1035B000064810B50068002410B1804700B101240E
:1035C00008F01AFD00B10124204610BD18010020AA
:1035D00070B516460C46054600F0DEF90B4800684B
:1035E000C16C006D0D440444002009F065FD06E047
:1035F000324621462846FEF7A3FA09F011FD0028BD
:10360000F6D1BDE8704001F0F1BB0000F8000020E9
:103610002DE9FC411C4615460E46074600F0BCF954
:1036200010480068C16C006D0F4406440D4404440A
:10363000ADF80070ADF80450ADF80260ADF806408A
:10364000684609F039FD07E023462A4631463846E8
:1036500003F060FC09F0E4FC0028F5D101F0C6FBA2
:10366000BDE8FC81F8000020B0F90630B0F9042074
:10367000B0F90210B0F90000FFF7CABF08B50B4659
:10368000002805D0009281888268C08800F001F887
:1036900008BD10B50828029C30D008DC04FB01F4FA
:1036A00001280AD0022813D0042804D11CE01028D5
:1036B00028D020282CD0002010BD04EBD30003F02C
:1036C0000701105CC1F10701C84000F0010010BD06
:1036D00004EB93000621105C01EA4301C1F10601ED
:1036E000C84000F0030010BD04EB5300D907105C84
:1036F00002D000F00F0010BD000910BD04FB013026
:10370000105C10BD481004FB003032F8100010BDF2
:10371000881004FB003052F8200010BD034951F816
:103720002000C1688A6A08211047000010010020AB
:1037300010B500F031F903F025FC03F0FDFC044660
:1037400001F054FB204610BD10B5044600F024F9EA
:10375000054800210068C069426820469047044639
:1037600001F044FB204610BDF800002070B50C4667
:10377000054600F011F9064821460068C069426814
:1037800028469047044601F031FB204670BD0000FA
:10379000F8000020002801D008F096BC704710B552
:1037A00000F0FAF803F0F6FB03F0C6FC044601F063
:1037B0001DFB204610BD00000021022802D2024954
:1037C00051F82010084670475806002010B500F048
:1037D000E3F804480068C069447E01F007FB204616
:1037E00010BD0000F800002070B50D46044600F042
:1037F000D3F814B909480068C46929460834207E02
:10380000A870A07E2871607EE87054F808292046D0
:103810009047BDE8704001F0E9BA0000F8000020D0
:1038200010B500F0B9F802F02FFA044601F0DEFA04
:10383000204610BD70B514460D46064600F0ACF8A3
:1038400022462946304603F017FC10B100202860BC
:103850002060BDE8704001F0C9BA70B50C4605465D
:1038600000F09AF82146284602F06CFABDE8704054
:1038700001F0BCBA10B5044602F056FA01462046E3
:10388000BDE8104002F00ABA01F0D2BB10B5002426
:1038900000F082F80B48006890F82C1001F00C0141
:1038A000042904D0082906D00C2907D103E0C069F7
:1038B000047E641E02E0C069007E440801F096FAAE
:1038C000204610BDF8000020017EC07E48437047AE
:1038D000024951F82000006900687047100100207B
:1038E000024951F82000006940687047100100202B
:1038F00070B50D46044600F04FF820460FF016FD57
:10390000044628460FF01AFD044301F06FFA2046E2
:1039100070BD10B5044600F03FF8204603F00CFCE3
:10392000044601F063FA204610BD0000144810B5AB
:10393000016821F0010101601248012181601249F2
:10394000016000681149884200D0FEE701F07EFD69
:103950000F492E20087001F071FB0E480FF020FE79
:10396000FEF7BAFD14F0E4FD04460021084600F01D
:1039700021FE08F01DFFFEF78BFD204610BD000064
:10398000002000E000300240C2A507F4CDB5E8B544
:10399000EC00002058D3002070B51F4CE06820B127
:1039A00001F03EFB6168884204D001F071FB01F038
:1039B00037FB6060E068401CE060012825D10025ED
:1039C0000AE000BF01F02CFB216901EBC511096879
:1039D000814205D0D1B16D1CA0688542F2DB002583
:1039E0002068854211D000280EDBFFF757F92268C6
:1039F000216901EBC212D067084A01EBC510011D15
:103A00001160C06FFFF73EF9256070BD216901EBC1
:103A1000C5110860E4E7000080060020F8000020DF
:103A20001CB5040004D10E480068046E002C16D0AA
:103A3000FFF7B2FF2046FEF77DFE0090446968461E
:103A4000FEF7E2FE4CB12046FEF774FE019081685D
:103A50008968884701A8FEF7D7FE01F0C7F91CBDA9
:103A6000F800002001490A4600F002B801F0FFFF0B
:103A70002DE9F04387B015460C465FEA000846D0B2
:103A8000FFF78AFF002000F05BFD814621480068B7
:103A9000066E4046FEF74EFE00900068806900F01A
:103AA000D3FC074640F6FF70001904D10098B0F926
:103AB0000440B0F906500098611E0289ADF8044038
:103AC0001144ADF808104189681E0844ADF806504D
:103AD000ADF80A0008F0B0F86846FEF795FE01A8B8
:103AE00009F0EAFA06E02A462146404600F07CFB4F
:103AF00009F096FA0028F6D1384600F0A5FC3046C9
:103B000000F0B8F9484600F01BFD01F06FF907B06E
:103B1000BDE8F083F80000202DE9FE4F984691465D
:103B20008A46834600270C9EFFF736FF1748184940
:103B30000068407C51F82040E1680968042903D0FE
:103B40002468002CF8D100E014B9FFF7DBF8044634
:103B50000121E068C26A20469047050011D024691F
:103B6000A0688047401C02D10A4C46F0010600962E
:103B7000CDE9015443464A465146584600F014FAEE
:103B8000074601F033F93846BDE8FE8FF800002003
:103B90001001002068F1020838B504001CD0FFF7BE
:103BA000FBFE0E480068006EA04201D100F03EFC12
:103BB0002046FEF7BFFD0090406908B101F0FFF814
:103BC00000980068FFF71CF86846FEF71DFE2046C7
:103BD000FEF7EEFC01F00AF938BD0000F800002005
:103BE0002DE9FF4F83B0454CDDF840B098468A463A
:103BF00007002BD002A901A8FFF72FFEB7F900603C
:103C0000002E00DA0026B7F90250002D00DA002558
:103C10002068A146407C03F048FA01990144491EFE
:103C2000B7F904000FF076FE0446D9F80000407C96
:103C300003F041FA02990144491EB7F906000FF05A
:103C400069FEA71B7F1C441B641C0BE02068002638
:103C50003546407C03F029FA07462068407C03F093
:103C60002AFA0446B8F1000F01D1C4F10008002F70
:103C700001DD002C03DC002007B0BDE8F08F4346D7
:103C80003A4629463046CDF800B0FFF745FF5FEAD7
:103C9000000909D000F0AEF88046484600F0EAF886
:103CA0000027DFF85CB01FE05146059888470120E7
:103CB000E2E7E11B414502DA484600F0BFF83FB1B8
:103CC000EA193146484600F003F94846FFF7A8FED6
:103CD000514605988847DBF8001009B10020884755
:103CE0004846FFF7BFFE4744A742E2DB4846FFF7DE
:103CF00053FF002000F0BEF8BDE70000F8000020F0
:103D0000CC06002038B505004FF0000411D0FFF7B5
:103D100043FE2846FEF70EFD0090006800698068AB
:103D2000804703F0C1FE04466846FEF76DFD01F0D2
:103D30005DF8204638BD38B50446FFF72DFE204615
:103D4000FEF7F8FC00F1180400906846FEF75CFDF1
:103D500001F04CF8204638BD38B504460025FFF781
:103D60001BFE1CB908480068046E44B12046FEF7EB
:103D7000E1FC0090B0F904506846FEF745FD01F003
:103D800035F8284638BD0000F800002038B5044654
:103D90000025FFF701FE1CB908480068046E44B115
:103DA0002046FEF7C7FC0090B0F908506846FEF7C1
:103DB0002BFD01F01BF8284638BD0000F80000205C
:103DC00038B504460025FFF7E7FD1CB90848006830
:103DD000046E44B12046FEF7ADFC0090B0F90650E9
:103DE0006846FEF711FD01F001F8284638BD0000D5
:103DF000F800002038B504460025FFF7CDFD1CB9BA
:103E000008480068046E44B12046FEF793FC009019
:103E1000B0F90A506846FEF7F7FC00F0E7FF2846C5
:103E200038BD0000F800002010B50AF0AFFB0028F4
:103E300003D0BDE8104000F07DB810BD38B50C4689
:103E4000050004D10A480068056E002D0FD0FFF769
:103E5000A3FD2846FEF76EFC0090B0F90A10A142BF
:103E600000DD44816846FEF7CFFC00F0BFFF38BD9F
:103E7000F8000020F8B50546FFF78EFD134E3068B8
:103E8000046E65B10CB100F0D1FA08F005F82846CF
:103E9000FEF750FC009031680A6E1AB106E000F09F
:103EA000C5FA0EE0D1E90223C1E919230D660068C5
:103EB000FEF7A8FE6846FEF7A7FC03F039FC03F006
:103EC000E1FA00F093FF2046F8BD0000F800002062
:103ED0007CB515460E46040004D115480068046EF2
:103EE000002C24D0FFF758FD2046FEF723FC2DB20E
:103EF0000090C58034B2848003F0C4FA0098406911
:103F000080B1FEF717FC009A0190B2F90810818089
:103F1000B2F90A20C28011B10AB10480458001A81B
:103F2000FEF772FC6846FEF76FFC00F05FFF7CBD99
:103F3000F800002001490A4600F002B801F0FFFF36
:103F40007FB515460C4606002DD0FFF725FD3046FF
:103F5000FEF7F0FB40F6FF710190091903D1B0F9AB
:103F60000440B0F906500289611E1144ADF80840C2
:103F7000ADF80C104189681E0844ADF80E00ADF88C
:103F80000A5001A8FEF740FC02A809F095F806E0E7
:103F90002A462146304600F00FF909F041F8002882
:103FA000F6D100F023FF7FBD2DE9FF4FDFF8E0B031
:103FB00083B01C46DBF80010DDE910609246002754
:103FC0004B7C3A461299FEF7DFFD05005DD028696B
:103FD0008068804703F068FD81460AFB09F0C01D38
:103FE0004FEAD008FEF7E0FBF10705D1C11700EB5F
:103FF0009170801000EB4000002C06DC1838B0FBFC
:10400000F8F06442A04200DC0446F00707D10090BB
:10401000DDE903012346524600F044FE0746002C2A
:1040200003DC2846FEF7ECFD2FE004FB08F0183017
:10403000F10702D0FEF78EFA01E0FEF79AFA0600C9
:104040001CD0FEF777FB01900560039981800499ED
:10405000C180A0F808A04481C0F80C80C0E9049792
:1040600001A8FEF7D1FB1298AE602861DBF80000D2
:10407000407CA861304607B0BDE8F08F2846FEF7C7
:10408000BFFD17B13846FEF793FA0020F3E70000B2
:10409000F80000200149086070470000CC060020AD
:1040A0002DE9F74F92B090461298FEF743FB0B9024
:1040B000B0F908100691B0F90A100D910068006976
:1040C000D0F804B00BA8FEF79FFB384C384D2068A1
:1040D000407C55F82000C1688A6A082190478146D3
:1040E000182801D34FF020092068407C55F82000A3
:1040F0000069079003C80C902E48814201D001202E
:1041000000E000201090002000F0E5FF002849D1D9
:104110000026DDE91207B2460FAB069C4546761C29
:104120000193FFF708FE014604FB0AF001EB800251
:10413000234629463846CDF800B001F0C7FA0500FD
:1041400030D01098D0B1DDE906134A46284601F078
:10415000C2F898B9DDE906702C46D0F810C0BCF161
:10416000000F05D0294604233A460846E04705E0FB
:104170000C992068884701C47F1EF9D10020CDE941
:104180000305059001200090CDE901094146034651
:1041900008F10108069A139802F02EFD0D98401EB2
:1041A0000D90B6D115B0BDE8F08F0000F8000020EA
:1041B0001001002083710008F8B515460E46074629
:1041C000FEF7B8FA009000681621C068426A002025
:1041D000904704466846FEF717FB002C03D02A469A
:1041E00031463846A047F8BDF8B515460E46074695
:1041F000FEF7A0FA009044696846FEF705FB3846D2
:10420000FFF780FD0346082800DD2CB12A46314621
:10421000384612F04DFFF8BD2A463146384613F0B5
:10422000DFF8F8BD10B5002821D009B30AB3B1F901
:104230000040B2F900309C4200DA23460380B1F915
:104240000240B2F902309C4200DA23464380B1F9C1
:104250000440B2F904309C4200DD23468380B1F96A
:104260000610B2F90620914200DC1146C18010BD53
:1042700011460A6802604968416010BD00280BD0F1
:1042800003880B440380838819448180418811444A
:104290004180C1881144C1807047000070B5104D45
:1042A0000446D5E9000188420ED10E49884203D167
:1042B000D0E90F12406C03E00C38D0E9001280689E
:1042C0002160C4E9012006E090E80E0084E80E00B9
:1042D0000FF04AF82860207A002800D0012070BD35
:1042E000500600205CD400200448D0E90010814230
:1042F00001D10120704700207047000050060020C7
:10430000054A10B50349116012F01CFDBDE81040CC
:1043100000F09EB911C400081C01002070B50025F2
:10432000FFF73AFB094CD4E9002082420AD0D2E9D7
:10433000005610460FF022F820603146284608F05B
:1043400037FB012500F052FD284670BD44060020D1
:104350002DE9FC41154DDDE908742D68B5F90860BB
:10436000864200DD3046B5F90C60964200DA3246EE
:10437000824219DBB5F90A608E4200DD3146B5F99B
:104380000E509D4200DA2B468B420DDB00E02C469E
:10439000E5682D6825B1042D02D02568002DF6D1E1
:1043A000CDE9007402F056FFBDE8FC81F800002062
:1043B000B0F90220B1F906309A4213DCB1F90220BB
:1043C000B0F906309A420DDCB0F90020B1F90430A2
:1043D0009A4207DCB1F90010B0F90400814201DC17
:1043E000012070470020704701460248782200688B
:1043F000FBF7D6BEF800002070B515460E46040047
:104400000AD0FFF7C9FA2A463146204612F050FA80
:10441000BDE8704000F0EABC70BD0000024978229F
:104420000968FBF7BDBE0000F800002010B5FFF7DB
:10443000B3FA02F0DBFF03F07BF907F0FDFBBDE808
:10444000104000F0D3BC000070B5094D0446286848
:10445000467CFFF7A1FA022C03D228684474FFF7C8
:10446000E5FF0448046000F0C1FC304670BD000068
:10447000F8000020B00500202DE9F041194E05009C
:1044800019493068194F407C51F820108C6917F891
:10449000048003D00FF038F860B11FE00521FEF76B
:1044A0001FFC06001AD00020FFF7F4FD3046FEF78F
:1044B000F2FB12E030680521407CFEF711FC60B988
:1044C000AFF24B00FFF7E6FD30680849407C183139
:1044D00051F8200008B1FEF795FB3D554046BDE878
:1044E000F0810000F800002010010020600600208C
:1044F00010B50446FFF750FA204602F099FFBDE8D8
:10450000104000F073BC10B50446FFF745FA204692
:1045100008F078FC044600F069FC204610BD10B598
:104520000446FFF739FA204602F0BAFFBDE8104012
:1045300000F05CBC0149886070470000EC0000207E
:1045400010B50446FFF728FA204602F0BBFF0446E8
:1045500000F04CFC204610BD70B50446FFF71CFA75
:1045600004480068C56904B1C46100F03FFC2846F6
:1045700070BD0000F800002070B514460D460646D8
:10458000FFF70AFA22462946304603F08FF8044620
:1045900000F02CFC204670BD70B50546FFF7FCF915
:1045A00003480068847E857600F020FC204670BDBC
:1045B000F800002070B50C460546FFF7EDF90948F4
:1045C000224605800848048008480068417C084865
:1045D00050F82100C1680B6A29469847BDE8704031
:1045E00000F004BC280100202A010020F80000206F
:1045F0001001002070B50546FFF7CEF903480068AA
:10460000047E057600F0F2FB204670BDF800002025
:1046100070B50446FFF7C0F904480068B0F92C50A3
:10462000848500F0E3FB284670BD0000F800002000
:1046300070B50446FFF7B0F904480068B0F92A5095
:10464000448500F0D3FB284670BD0000F800002030
:1046500002480068002800D000477047A4060020E8
:1046600002498A6802B98860FFF7F2BF4406002059
:104670002DE9FC41984615460E460746FFF78CF992
:104680001C20FDF776FF040028D01A49184808605E
:104690002046FEF74FF800900760C0E90456A0F8E6
:1046A0000C806846FEF7B0F820460FF043F8124D34
:1046B000A86840B90120A86005F10C010F48086006
:1046C000084601F0A9FC2046FEF734F8019029685D
:1046D00049B181602C6001A8FEF796F800F086FBD6
:1046E0002046BDE8FC8100212C608160F3E70000DA
:1046F0002947000818010020A8080020493B0108AC
:1047000010B504000ED0FFF747F9204611F0F2FC77
:10471000204612F00BFC2046FDF74AFFBDE8104092
:1047200000F064BB10BD00002DE9F04188B0002509
:10473000FFF732F9184C676825E000BFFFF7A4F8CF
:1047400006466068FDF7F6FF01904169891B002964
:1047500015DC616802960491016903914668666000
:10476000D0F8008001A8FEF74FF802A8414688471C
:1047700066B160680125B84205D1002506E001A8B0
:10478000FEF742F802E060680028D7D100F02EFB67
:1047900008B02846BDE8F081A808002038B50C46CE
:1047A000050011D0FFF7F8F82846FDF7C3FF009089
:1047B0008089204201D0012400E000246846FEF7F1
:1047C00023F800F013FB00E00124204638BD38B583
:1047D000040017D0FFF7E0F82046FDF7ABFF00908C
:1047E000FFF752F80146009882691144416168461A
:1047F000FEF70AF8204612F099FB20460EF09AFFC9
:1048000000F0F4FA38BD38B50C4605000BD0FFF7C0
:10481000C3F82846FDF78EFF009084616846FDF7D7
:10482000F3FF00F0E3FA38BD38B5054600202860F4
:104830000648046844B12046FDF77CFF00900069FB
:1048400028606846FDF7E0FF204638BDA808002034
:1048500038B504004FF000000D46086011D0204626
:10486000FDF768FF0090846844B16846FDF7CCFF0F
:104870002046FDF75FFF0090006928606846FDF75D
:10488000C3FF204638BD00002DE9F84FDFF89C80BB
:104890000546274F98F818008B46410738680A9E4E
:1048A0009946407C924607D402F010FC04463868D2
:1048B000407C02F017FC06E002F014FC0446386865
:1048C000407C02F003FC002795B1A0F1010400BF79
:1048D000B9EB060000D54042142806DB5146BBEB7D
:1048E0000A0000D54042142804DA0120BDE8F88F00
:1048F000641EEDE70A464B465946384600960EF0D0
:104900005DFF0C4F4B46524647F83500594620464E
:1049100000960EF053FF07EBC501486011F0BEFE94
:1049200001210020C8F81C10E0E700002C01002045
:10493000F8000020DCD300202DE9F047524D534E03
:104940000024E86978B96868346000F00501746093
:1049500010F0060F01D000F00500B460F46011F013
:104960009DFE0120E8612878C8B100F0F1F8A84662
:10497000286100F0EBF82969286A81420BDBD8F83E
:1049800024204046914206DC836A42699A4202DB57
:10499000C36A9A420DDD4FF0FF3001466FE000F030
:1049A000DAF8686100F0D3F82878401C2870BDE878
:1049B000F087326898F81800354F8D1A40070028A4
:1049C0003868407C02DB02F081FB01E002F08AFBE8
:1049D000401E4543D6E90020B146801A95FBF0F60B
:1049E000D8F81420D9F8081098F81800551A40077C
:1049F00000283868407C02DB02F074FB01E002F022
:104A000065FB401E4543D9E90201081A95FBF0F504
:104A100098F81800400700283868407C18DB02F03E
:104A200055FB81463868407C02F05CFBD8F81820C2
:104A30000146D00704D0A9EB0600A0F1010000E078
:104A40003046920702D5491B491E18E0294616E058
:104A500002F048FB81463868407C02F037FBD8F80A
:104A60001820D10704D0A9EB0601A1F1010100E053
:104A70003146920702D5401B401E00E0284612F046
:104A80008DF988F8004092E72C010020DCD300204B
:104A9000F8000020044910B591E81C001CC0087AF9
:104AA000002800D0012010BDD0D3002001480069AB
:104AB000704700002C010020014840697047000049
:104AC0002C01002001498861704700002C01002062
:104AD000074A002806DB002904DB01231372C2E920
:104AE000000101E000201072014800F003B800004E
:104AF0002CD5002010B504460C220749FBF789FB92
:104B0000002808D0044894E80E000EC02046BDE8F6
:104B10001040FFF7F5BB10BDD0D3002030B40A4CD5
:104B20002268831A01D5C3F1000362688A1A00D58E
:104B300052421A44022A04DDC4E9000130BCFFF7E6
:104B4000C7BF30BC704700009C060020704770470C
:104B5000D02008F04DBF902008F04ABF10B5FEF7F6
:104B60001BFF044902480860BDE8104000F03EB950
:104B70003CD00208FC0000202DE9F041084E04461C
:104B800005683068016828468847074630684168EC
:104B900028468847284420603846BDE8F081000058
:104BA000FC0000202DE9F0410C4606460025064F8A
:104BB00005E0386841683046884706440544641E6D
:104BC000F7D22846BDE8F081FC0000202DE9F04135
:104BD0001E46069C1746884605463A46A8687F1C2E
:104BE0003346D0F804C041462846E047641EF4D15D
:104BF000BDE8F08170B5B0F90040091BB0F9044080
:104C00008C422CDD00F11404B0F902500069521BF3
:104C100002FB0040CA1800EBE104521ED010B0EBBA
:104C2000E10501F007034FF0FF0102F0070221FA4E
:104C300003F0C2F1070201FA02F1CEB221780FD0DF
:104C400001436D1E04F8011B002D05DDFF222946DE
:104C50002046FBF7C5FA2C4420783043207070BD05
:104C600030400143217070BD10B5B0F90030B0F98B
:104C70000240C91A00F114030069121B02FB003044
:104C800000EBE10001F0070302788021D9400A43DC
:104C9000027010BDB0F90610026951431430FBF7E1
:104CA000A6BA00002DE9F843804602F10F0000117A
:104CB000470003FB07F01C46154689461430FDF7F4
:104CC00058FC060018D0FEF767FE3046FDF732FDAF
:104CD0000090A0F80080A0F802908580C480074969
:104CE00081600121818107616846FDF78DFD00F03B
:104CF0007DF83046BDE8F8830020FBE77C0A030816
:104D000070B5B0F90660B0F904400B6800F1140505
:104D1000964220DD0069A34202FB005000EBE30253
:104D200019DAA4F101044FEAE400A0EBE30512F85C
:104D3000010B03F0070400FA04F0C4B208E055B117
:104D400012F8014B03F10803A5F1010523F0070355
:104D5000002CF4D008E0002070BD00BF4FEA446092
:104D60004FEA106403F101032006F7D5FF2C0AD0A7
:104D7000184605E04FEA44644FEA146400F101006C
:104D80006606F7D400E0D81DC443640706D007E0E8
:104D900012F8014BFF2C0FD100F108006D1EF7D562
:104DA000A0EB030000F101000B6070BD4FEA44620C
:104DB0004FEA126400F101002206F7D4F0E738B59B
:104DC0000546FEF7E9FD2846FDF7B4FC0090818911
:104DD000491E0CB284816846FDF716FD14B92846B9
:104DE000FDF7E6FB00F002F838BD00000348C1689B
:104DF000491EC16001D100F057B9704780060020FC
:104E00002DE9F04116460F4605460024FEF7C4FD85
:104E100032463946284601F007F9054408B1641CBA
:104E2000F6E7FFF7E3FF2046BDE8F081F0B587B075
:104E30001546044601A80C9A1F000E4600900BD0A0
:104E4000122101AB00207260B84728B9684601F012
:104E5000A3F81D49884202D0012007B0F0BD684682
:104E600001F091F82076684601F08DF8607668468A
:104E700001F089F884F82000684601F084F884F88D
:104E80002100684601F07FF884F822000120A07616
:104E9000E076684601F077F83080684601F073F8F4
:104EA0007080B760E6612868206068686060A86804
:104EB000A060E868E0602869206168696061204658
:104EC000FFF74AFB0020C8E7475549587FB50D4614
:104ED00019490968C969CC692188814202D8618869
:104EE000814202D2002004B070BD01466A462046CD
:104EF00000F02EF800980028F5D003A80290D4E91D
:104F0000012403AB65B104210098A04760B902A851
:104F100001F039F8044602A801F035F8286009E0EC
:104F200002210098A04708B10120DCE702A801F0A7
:104F30002AF804462046D6E7F800002010F8202F73
:104F40008A704278CA7080780871012008807047A2
:104F50007CB51446CDF804D002886B46891A4A0005
:104F600002EB8105D0E90126123504212846B0471D
:104F700018B10020206001207CBD01A801F00CF8D0
:104F8000206000207CBDFEB51646CDF808D0028812
:104F90001D46891A4A0002EB8104D0E90127123428
:104FA0006B4606212046B84708B10120FEBD02A885
:104FB00000F0F2FF306002A800F0E5FF288000203A
:104FC000FEBD08B5C06902888A4202D842888A427A
:104FD00001D2002008BD6A46FFF7BAFF00980028FA
:104FE000F8D0012008BD000010B54FF4C8410548B5
:104FF000FDF7D6FA8020FDF7F1FBBDE8104002482E
:10500000FFF798BA3C6E0020BCED020808B56A466E
:10501000002103F06DFC08BD70470120FFF7F6BFCB
:105020000248006890F837007047000098000020A0
:1050300008B5684603F000FD08BD000008B56B46E2
:10504000002202A1034803F01DF908BD4B65795306
:10505000656D000074D2002008B56B46012206A1E0
:10506000074803F00FF906486B46002205A11C30E3
:1050700003F008F908BD00004469737053656D00C2
:105080003CD200204576656E7453656D00000000CB
:105090001CB501A8002300901A461946014803F0E8
:1050A00013F91CBD3CD2002008B56A460021024815
:1050B00003F08CF908BD00003CD2002030B4136826
:1050C00020241C7030245C7078249C70DB1C1360DE
:1050D00030BCFDF76DBC0EB508B102AA00E000229D
:1050E000002301A9684600F087FD0EBD074910B5F1
:1050F000CC6818B10120C860801E03E00020C860A1
:105100006FF07F4001F062FD204610BD6006002078
:105110002DE9F041984616460C4688B3FEF7AAFBE7
:10512000074608F00300012825D0022817D0B4F95B
:10513000005000BFFEF74AFB014608F00C000428AF
:105140002BD00C281DD0B4F9020035807080EA19EC
:10515000521E0844B280401EF080BDE8F081B4F9D0
:105160000400B4F90010401AC01B401C00EBD070C2
:1051700001EB6005DEE7B4F90400C51B6D1CD9E73F
:1051800010E0B4F90600B4F90220801A401A401C5D
:1051900000EBD07002EB6000D7E7B4F90600401ACC
:1051A000401CD2E72068306060687060D5E710B5B9
:1051B000082A0EDC0346012A1AD0022A58D0042AF3
:1051C00078D010F8042B03F8012B491EF9D10120E7
:1051D00010BD102A0ADC0222022AF8D1024630F859
:1051E000043B22F8023B491EF9D1F0E7002010BD34
:1051F00010F8042BD207120E491E34D010F8044BBD
:10520000491E04F0010442EA84122CD010F8044B29
:10521000491E04F0010442EA441224D010F8044B61
:10522000491E04F0010442EA04121CD010F8044B99
:10523000491E04F0010442EAC40214D010F8044BE1
:10524000491E04F0010442EA84020CD010F8044B19
:10525000491E04F0010442EA440204D010F8044B51
:1052600004F00104224303F8012B0029C0D1AEE76A
:1052700010F8042B9207120E491E15D010F8044B9B
:10528000491E04F0030442EA04120DD010F8044B46
:10529000491E04F0030442EA840205D010F8044BCE
:1052A00004F003042243491E03F8012B0029DFD137
:1052B0008DE7FFE710F8042B1207120E491E05D0E8
:1052C00010F8044B04F00F042243491E03F8012B8D
:1052D0000029EFD17BE72DE9F0411E680D46044619
:1052E000082A09DC0746012A21D0022A62D0042AB2
:1052F0007CD0082A1AD195E0102A03DC022002286B
:10530000F8D102E00020BDE8F081D3F810C02746B4
:10531000BCF1000F04D00A462146022308468AE069
:1053200001CCB04727F8020B6D1EF9D18BE001CC00
:10533000B047C0074FEA10686D1E36D001CCB047A9
:1053400048EA801000F0FF086D1E2ED001CCB04757
:1053500048EA401000F0FF086D1E26D001CCB0478F
:1053600048EA001000F0FF086D1E1ED001CCB047C7
:1053700048EAC00000F0FF086D1E16D001CCB0470F
:1053800048EA800000F0FF086D1E0ED001CCB04747
:1053900048EA400000F0FF086D1E06D001CCB0477F
:1053A00040EA080000F0FF086D1E07F8018B002D91
:1053B000BDD148E001CCB04780074FEA10686D1EB0
:1053C00018D001CCB04748EA001000F0FF086D1E6D
:1053D00010D001CCB04748EA800000F0FF086D1EF5
:1053E00008D001CCB04740EA080000E007E000F038
:1053F000FF086D1E07F8018B002DDBD123E001CCE7
:10540000B04700074FEA10686D1E06D001CCB047C8
:1054100040EA080000F0FF086D1E07F8018B002D20
:10542000EDD110E0D3F810C0BCF1000F05D00A4652
:10543000014601233846E04705E001CCB04707F8B4
:10544000010B6D1EF9D101205DE700000A4810B57F
:10545000816900290ED101218161FFF7C5FD02F0AC
:1054600079F9054905481C310860BDE81040084637
:1054700000F0D2BD10BD0000EC000020613A010830
:1054800030B54589039CD58005899580858901EBD8
:1054900085051035C2E9025385881580C588558079
:1054A0001461002B08D0827B1A718089186008B1C2
:1054B000103100E00021996030BD00007CB5064647
:1054C00028480D46006868B1002007F0F5FD06E0A9
:1054D0006A462946304609F005FA07F0A1FD002882
:1054E000F6D17CBD106800901F4C50680190226876
:1054F000BDF8000032F84C1F0844ADF80000BDF8BC
:10550000020091880844ADF80200BDF8040011883B
:105510000844ADF80400BDF8060091880844ADF8D1
:105520000600684607F0C8FD0EE000BF2068BDF821
:1055300000106A464184BDF8021081842946304635
:1055400009F0D0F907F06CFD0028EFD1206830F8A1
:10555000221F428D891A01804188C28D891A41809B
:105560007CBD000024010020F80000202DE9FF4F41
:1055700085B09A4690460D46FEF728F94FF000098F
:10558000DDF814B006464C4625B1286800906868DE
:10559000019002E06846FEF7FDF818F00C0F02D00B
:1055A0005546002713E0BDF902402DE07F1C294637
:1055B000059800F09DFB01466D1A0598FFF7F2FA79
:1055C00005990844059005A800F0D6FB08B9002D00
:1055D000ECD108F00C00042804D0082802D00C28D4
:1055E00012D105E0BDF9060007FB1604641C0BE0B0
:1055F000BDF90600BDF90210401A07FB1600401C59
:1056000000EBD07001EB60045546CDF814B043E0D8
:105610002946059800F06CFB07460146ED1B0598EE
:1056200000F03CFB18F003010ED0012939D002290B
:105630000DD1BDF90410BDF90020891A091A01EB3A
:10564000D17102EB610101E0BDF900108946174AF2
:10565000401E484412683946A2F822909484ADF85E
:105660000C00A019401EADF80890ADF80E00ADF882
:105670000A4002AA0598FFF721FF39460598FFF76F
:1056800091FA059908440590FEF7A0F8044405A88E
:1056900000F072FB002801D1002DB9D109B0BDE89E
:1056A000F08FBDF90410091A491CCFE7F80000205B
:1056B00049B1002802DAA0EB610001E000EB6100D3
:1056C00090FBF1F070470020704700002DE9FF4F7C
:1056D00000208BB004460146009019981D461646DE
:1056E000016007AB002203A902A800F085FA18B1F7
:1056F00000200FB0BDE8F08F0798854200DD054619
:105700005C4F0A955C493868407C51F82010049140
:1057100009690691FEF702F805903868407CFEF7AB
:10572000DFF856498146884204D05549894501D061
:10573000012000E00020099001CE18998847824698
:105740005FEA106B71D0009870BB0B9800EB0408F7
:1057500048480068B0F90800404503DDA0EB0807A1
:10576000804600E000270299049801EB840101EBD8
:105770008701CDE90010DDE90A010A180C9B0892A7
:10578000521E19464046FEF7E3FD012000900598A1
:1057900018280ADA0298DDE9052300EB840000EB03
:1057A0008700E91B00F04EF910E0099870B10298EB
:1057B00000EB840000EB87070898A0EB0808494637
:1057C0003868884701C7B8F10108F8D12D48C06989
:1057D00060B3DDE9020700EB840007EB8402CDE94A
:1057E0000202284C361F2B46E46930460299A04736
:1057F000FF203168B0EB116F02D10299096804E013
:10580000029A1268B0EB126F01D1039A11600299EB
:10581000361D091D02910399091D03916D1EE8D1E2
:1058200019990120039708601DE01EE0FFE7BBF116
:10583000FF0F0ED00298CBF1FF0250F82410504613
:1058400000F04AFB039941F82400199901200860EF
:1058500005E00298039950F8240041F82400641CE4
:105860006D1E7FF469AF039843E7039941F824A0C4
:10587000EBE70000F8000020100100208371000811
:1058800081710008040600202DE9F04F85B09B4689
:10589000DDE90F8792460C460546DDF83890FEF7A5
:1058A0007BF815480068C16C4E190D19016DABF1FC
:1058B000010001EB0A04ADF810502044ADF80C6073
:1058C000ADF81200ADF80E4003A807F0F5FB0BE0B1
:1058D000CDF80090CDE901875B4622462946304647
:1058E0000BF080FF07F09CFB0028F1D1FFF77EFA58
:1058F00005B0BDE8F08F0000F80000202DE9FF4F53
:1059000087B00C46DDE91698DDE914BA0546FEF7C6
:1059100043F81448099A0168C86C096D471985183D
:105920000E190A98ADF810700C18ADF81450ADF8B7
:105930001260ADF8164004A807F0BEFB0BE0CDE9FD
:105940000298CDE900BA23462A46314638460BF084
:10595000CDFF07F065FB0028F1D1FFF747FA0BB048
:10596000BDE8F08FF8000020F0B500EB8104082AB4
:105970000ADC01264D1E092A14D2DFE802F01314B6
:105980002A42425959595900102A0BDC0222022A94
:1059900008D100EB410000BF30F8022D44F8042D7F
:1059A000491EF9D1F0BD05F00702C2F1070200EB74
:1059B000E50006FA02F503782B40D340521C44F868
:1059C000043DA0EBE20022F007031A41491EF0D18A
:1059D000F0BD05F00302C2F1030200EBA5000323B2
:1059E0000578560003FA06F73D40F540521C44F88E
:1059F000045DA0EBA20022F003052A41491EEFD16D
:105A0000F0BD8E43C6F1010200EB65000F2305785F
:105A1000960003FA06F73D40F540521C44F8045D39
:105A2000A0EB620022F001052A41491EEFD1F0BD32
:105A300000EB0100491E10F8012D44F8042DF9D1A6
:105A4000F0BD00002DE9F05F0C1E16DD5E6801461A
:105A500000EB8405082A12DC611E012A28D0022AE4
:105A600048D0042A6AD0082A07D1071917F8010D6F
:105A7000B04745F8040D641EF8D1BDE8F09F102A28
:105A8000FBDC0222022AF8D15F693FB12246BC4604
:105A9000BDE8F04F02235DF804EB604701EB4407DB
:105AA00037F8020DB04745F8040D641EF8D1E4E75D
:105AB00000EBE1002D1F10F801A9814601F0070756
:105AC000802020FA07F800BF0AEA0800C7F10701A2
:105AD000C840B04745F804093FB17F1E4FEA48600F
